:1000000010C02AC0B6C028C027C026C025C024C042
:1000100023C022C021C020C01FC01EC01DC01CC0E4
:100020001BC011241FBECFE5D2E0DEBFCDBF10E064
:10003000A0E6B0E0E8E4F4E002C005900D92A63638
:10004000B107D9F720E0A6E6B0E001C01D92AA38BA
:10005000B207E1F781D1F6C1D3CF8AB3806D8ABBF5
:100060008BB3806A8BBB0895282FDC9898E080E0E2
:1000700027FF02C0DE9A01C0DE98220F880FDC9AAB
:10008000CD998160DC98915099F708956EE380E0F6
:1000900095D08FE99FE00197F1F700C000006FE372
:1000A00080E08CD0DB9A83E091E00197F1F700C00B
:1000B000000008956CE380E081D0089525D1089573
:1000C000A3E0B0E0E5E6F0E096C16B8389839A8314
:1000D000DDDF6B8189819A81E2D02396E2E0A7C1BE
:1000E00060E787E06BD0089564D02FEF80E792E05F
:1000F000215080409040E1F700C00000DBDF60E06D
:1001000081E05CD06FE382E059D063E083E056D0B9
:1001100060E084E053D062E085E050D062E286E0A7
:100120004DD0DEDF45E060E670E08AE05AD064E062
:1001300081E144D0ABDF0895F89480E886BD16BC19
:100140008AB3886D8ABB8BB386688BBB87B38760A5
:1001500087BB88B3876088BB81E082BB8AB7806138
:100160008ABF8BB780618BBF80B18F6080B9789474
:1001700008951F920F920FB60F9211242F938F9311
:100180009F9329B380918700922F9827209387000F
:1001900082B38170892329F020FD03C081E0809320
:1001A00066009F918F912F910F900FBE0F901F901F
:1001B000189553DFD39AD098DB980895A1E0B0E06A
:1001C000E3EEF0E017C1DF988F71806269834CDF46
:1001D000182F6981862F48DFDF9A812F2196E3E06F
:1001E00025C1CF92DF92FF920F931F93CF93DF939E
:1001F00000D0CDB7DEB7042FDF988F71806269839E
:100200007A8332DF182F6981F62EC62E7A81D72E97
:100210008C2D8F19801728F4F60181916F0124DF4E
:10022000F7CFDF9A812F0F900F90DF91CF911F9121
:100230000F91FF90DF90CF900895DF988F7114DFBA
:1002400080E012DFDF9A0895462FBC018AE0C9DF03
:100250000895462FBC0180E1C4DF0895DB9A08951C
:10026000DF9881EE01DFDF9A0895DF9882EEFCDEF1
:10027000DF9A0895DF9880E6F7DE80E0F5DEDF9A0A
:100280000895DF988FEFF0DEDF9A0895FADF80950A
:100290008170089587E1D1DF809581700895CF92B4
:1002A000DF92FF920F931F93CF93DF931F92CDB7EF
:1002B000DEB7182F062FDB98DF9880EA9983D4DE0B
:1002C000998180FD04C0F12EC12ED92E03C0DF9A82
:1002D00080E011C08C2D8F19801728F4F6018191D0
:1002E0006F01C2DEF7CFDF9ADB9AFDE1FA95F1F7F5
:1002F0000000DB9881E00F90DF91CF911F910F916B
:10030000FF90DF90CF900895CF92DF92FF920F93EE
:100310001F93CF93DF931F92CDB7DEB7182F062F11
:10032000DF9881E69983A0DEF12EC12E9981D92E26
:100330008C2D8F19801730F48FEF96DEF6018193A4
:100340006F01F6CFDF9A0F90DF91CF911F910F9140
:10035000FF90DF90CF900895A4E0B0E0E1EBF1E0F2
:100360004AC0EADE89B380938700BEDE80916600D2
:100370008823C1F010926600B3DE64E0CE010196DE
:100380009DDE8981E82FE770F0E0EE0FFF1FEE0F92
:10039000FF1FE959FF4F80838A8181838B8182838C
:1003A0008C81838380E090E09C01220F331F220F19
:1003B000331FF901E959FF4F41814111C098F901FB
:1003C000E959FF4F2381283708F4C19801968830F6
:1003D000910551F7CBCF2F923F924F925F926F9240
:1003E0007F928F929F92AF92BF92CF92DF92EF92C5
:1003F000FF920F931F93CF93DF93CDB7DEB7CA1B46
:10040000DB0B0FB6F894DEBF0FBECDBF09942A8870
:10041000398848885F846E847D848C849B84AA8418
:10042000B984C884DF80EE80FD800C811B81AA81A5
:10043000B981CE0FD11D0FB6F894DEBF0FBECDBF70
:08044000ED010895F894FFCFCF
:06044800193610258200A8
:00000001FF
