:1000000010C02AC0BCC028C027C026C025C024C03C
:1000100023C022C021C0D3C01FC01EC01DC01CC031
:100020001BC011241FBECFE5D2E0DEBFCDBF10E064
:10003000A0E6B0E0E0E9F5E002C005900D92AE3731
:10004000B107D9F720E0AEE7B0E001C01D92A439B6
:10005000B207E1F7CED19AC2D3CF8AB3806D8ABB03
:100060008BB3806A8BBB0895282FDC9898E080E0E2
:1000700027FF02C0DE9A01C0DE98220F880FDC9AAB
:10008000CD998160DC98915099F708956EE380E0F6
:10009000E2D08FE99FE00197F1F700C000006FE325
:1000A00080E0D9D0DB9A83E091E00197F1F700C0BE
:1000B000000008956CE380E0CED0089572D10895D9
:1000C000A3E0B0E0E5E6F0E03AC26B8389839A836F
:1000D000DDDF6B8189819A812FD12396E2E04BC2CB
:1000E00060E787E0B8D00895B1D02FEF80E792E0C5
:1000F000215080409040E1F700C00000DBDF60E06D
:1001000081E0A9D061E082E0A6D063E083E0A3D0E3
:1001100060E084E0A0D062E085E09DD062E286E00D
:100120009AD0DEDF45E068E770E08AE0A7D064E0BF
:1001300081E191D0ABDF0895F89480E886BD16BCCC
:100140008AB38C6D8ABB8BB382688BBB87B38760A5
:1001500087BB88B3876088BB81E082BB8AB7806138
:100160008ABF8BB780618BBF10BE85E083BF89B724
:10017000816089BF80B18F6080B9789408951F92A3
:100180000F920FB60F9211242F938F939F9329B341
:1001900080918F00922F982720938F0082B38170D7
:1001A000892329F020FD03C081E080938A009F917C
:1001B0008F912F910F900FBE0F901F9018951F9247
:1001C0000F920FB60F9211248F93809190008F5F42
:1001D0008093900080919000877019F481E0809363
:1001E00093008F910F900FBE0F901F901895FC01F8
:1001F000F8943BB32BB3DA989BE69A95F1F7246019
:100200003B7FCB0163E070E06DD147E047E00190B8
:10021000000000003BBB000C2BBB08F03BBB415077
:10022000B9F7000C40F447E03BBB00002BBB019743
:10023000019079F708C03BBB47E02BBB00003BBBFC
:100240000197019041F73BBB7894089506DFD39A5C
:10025000D098DB980895A1E0B0E0E0E3F1E06EC152
:10026000DF988F7180626983FFDE182F6981862F86
:10027000FBDEDF9A812F2196E3E07CC1CF92DF92F3
:10028000FF920F931F93CF93DF9300D0CDB7DEB7CC
:10029000042FDF988F71806269837A83E5DE182FDF
:1002A0006981F62EC62E7A81D72E8C2D8F19801754
:1002B00028F4F60181916F01D7DEF7CFDF9A812F05
:1002C0000F900F90DF91CF911F910F91FF90DF90D2
:1002D000CF900895DF988F71C7DE80E0C5DEDF9A8A
:1002E0000895462FBC018AE0C9DF0895462FBC015E
:1002F00080E1C4DF0895DB9A0895DF9881EEB4DED3
:10030000DF9A0895DF9882EEAFDEDF9A0895DF98D6
:1003100080E6AADE80E0A8DEDF9A0895DF988FEFFE
:10032000A3DEDF9A0895FADF80958170089587E152
:10033000D1DF809581700895CF92DF92FF920F9365
:100340001F93CF93DF931F92CDB7DEB7182F062FE1
:10035000DB98DF9880EA998387DE998180FD04C06D
:10036000F12EC12ED92E03C0DF9A80E011C08C2D52
:100370008F19801728F4F60181916F0175DEF7CF90
:10038000DF9ADB9AFDE1FA95F1F70000DB9881E056
:100390000F90DF91CF911F910F91FF90DF90CF9041
:1003A0000895CF92DF92FF920F931F93CF93DF9325
:1003B0001F92CDB7DEB7182F062FDF9881E69983FD
:1003C00053DEF12EC12E9981D92E8C2D8F198017D5
:1003D00030F48FEF49DEF60181936F01F6CFDF9A9B
:1003E0000F90DF91CF911F910F91FF90DF90CF90F1
:1003F0000895A2DE89B380938F0076DE64E070E01A
:100400008EE790E0F4DED0E0C0E013E001E088E1A8
:10041000F82E80918A00882349F110928A0060DECC
:1004200064E08BE890E04ADE80918C00882349F0FC
:10043000C13039F000939300F0929100029812BEFF
:10044000C1E080918E00882389F080918E008138F0
:1004500068F080918B00612F56D0992321F0913064
:1004600021F4C19803C0C09801C0C298C13079F589
:1004700080919300882359F110929300809191000C
:10048000882329F181508093910081110BC0109233
:100490008C00029A64E070E08EE790E0A8DED0E085
:1004A000C0E015C0DD2339F064E070E08EE790E035
:1004B0009EDED0E00CC080918B00612F24D0892F6C
:1004C00090E064E070E0805A9F4F91DED1E085B704
:1004D000877E85BF85B7806285BF889585B78F7D0C
:1004E00085BF97CF0024552704C0080E591F880FD9
:1004F000991F009729F076956795B8F37105B9F7BC
:10050000802D952F0895991B79E004C0991F9617A7
:1005100008F0961B881F7A95C9F7809508952F9249
:100520003F924F925F926F927F928F929F92AF9283
:10053000BF92CF92DF92EF92FF920F931F93CF93D0
:10054000DF93CDB7DEB7CA1BDB0B0FB6F894DEBF67
:100550000FBECDBF09942A88398848885F846E848D
:100560007D848C849B84AA84B984C884DF80EE80D7
:10057000FD800C811B81AA81B981CE0FD11D0FB6E0
:10058000F894DEBF0FBECDBFED010895F894FFCF04
:100590000000FF0000FF0000FF0000FF000000005F
:0E05A000000000000000000019361025820047
:00000001FF
