:1000000010C02AC0BBC028C027C026C025C024C03D
:1000100023C022C021C0DAC01FC0F7C01DC01CC051
:100020001BC011241FBECFE5D2E0DEBFCDBF10E064
:10003000A0E6B0E0EAE0F5E002C005900D92A63639
:10004000B107D9F720E0A6E6B0E001C01D92A037C5
:10005000B207E1F7BCD157C2D3CF8AB3806D8ABB58
:100060008BB3806A8BBB0895282FDC9898E080E0E2
:1000700027FF02C0DE9A01C0DE98220F880FDC9AAB
:10008000CD998160DC98915099F708956EE580E0F4
:10009000D1D08FEC97E00197F1F700C000000895F0
:1000A0006CE580E0C7D00895C0D02FE788E391E0E9
:1000B000215080409040E1F700C00000F1DF60E097
:1000C00081E0B8D063E083E0B5D060E084E0B2D0F6
:1000D00062E085E0AFD062E286E0ACD045E060E669
:1000E00070E080E1BAD00895A3E0B0E0E9E7F0E085
:1000F000E3C16B8389839A83C9DF6B8189819A818C
:100100000AD12396E2E0F4C160E787E093D0089536
:10011000F89480E886BD81E086BD8AB3886D8ABB8D
:100120008BB386688BBB88B3876088BB83E082BB58
:100130008AB780638ABF8BB780618BBF10BE85E0B2
:1001400083BF89B7816089BF1FBC89E18EBD12BCA6
:100150001DBC1CBC8AED90E09BBD8ABD99BD88BDCD
:1001600084EB91E095BD84BD80B1876080B97894BF
:10017000089564E088E690E0B7DF08951F920F923B
:100180000FB60F9211242F938F939F9329B38091D1
:100190006D00822720936D0092B39170982329F00F
:1001A00020FD03C091E09093660092B39270892382
:1001B00029F021FD03C081E080936F009F918F9112
:1001C0002F910F900FBE0F901F9018951F920F92B6
:1001D0000FB60F9211248F9380916E008F5F8093E2
:1001E0006E0080916E00837051F481E080936C000A
:1001F000009886B18C6886B91C9A81E287B98F9184
:100200000F900FBE0F901F9018951F920F920FB670
:100210000F9211248F9385B180936B00009A8F9178
:100220000F900FBE0F901F90189517DFD39AD0989C
:10023000DB980895A1E0B0E0EFE1F1E03CC1DF9888
:100240008F718062698310DF182F6981862F0CDF20
:10025000DF9A812F2196E3E04AC1CF92DF92FF928D
:100260000F931F93CF93DF9300D0CDB7DEB7042F4A
:10027000DF988F71806269837A83F6DE182F698137
:10028000F62EC62E7A81D72E8C2D8F19801728F442
:10029000F60181916F01E8DEF7CFDF9A812F0F9091
:1002A0000F90DF91CF911F910F91FF90DF90CF9032
:1002B0000895DF988F71D8DE80E0D6DEDF9A08954A
:1002C000462FBC018AE0C9DF0895462FBC0180E1BA
:1002D000C4DF0895DB9A0895DF9881EEC5DEDF9ACA
:1002E0000895DF9882EEC0DEDF9A0895DF9880E6F9
:1002F000BBDE80E0B9DEDF9A0895DF988FEFB4DED1
:10030000DF9A0895FADF80958170089587E1D1DF43
:10031000809581700895CF92DF92FF920F931F9383
:10032000CF93DF931F92CDB7DEB7182F062FDB9840
:10033000DF9880EA998398DE998180FD04C0F12ED0
:10034000C12ED92E03C0DF9A80E011C08C2D8F19E9
:10035000801728F4F60181916F0186DEF7CFDF9ACE
:10036000DB9AFEE0FA95F1F700C0DB9881E00F9090
:10037000DF91CF911F910F91FF90DF90CF90089563
:10038000CF92DF92FF920F931F93CF93DF931F9231
:10039000CDB7DEB7182F062FDF9881E6998364DE8C
:1003A000F12EC12E9981D92E8C2D8F19801728F40A
:1003B000F60181916F0158DEF7CFDF9A0F90DF9140
:1003C000CF911F910F91FF90DF90CF900895A0DE05
:1003D00089B380936D0068DE86E280936800109296
:1003E0006900C7DEC1E0D1E280916900811117C0C8
:1003F00080916F00882369F110926F0080916A00EC
:10040000816080936A00C0936900029812BE0098D0
:1004100086B18C6886B91C9AD7B9369A19C0809172
:1004200069008130B1F480916C00882391F01092C2
:100430006C00369A80916F00811108C0109269009B
:1004400080916A008E7F80936A00029A10926F00FA
:1004500090DE80916600882321F01092660054DEC1
:100460001FDE80916700811184DE809169008130F8
:1004700019F485B7877E07C080916900811104C097
:1004800085B7877E806185BF85B7806285BF889587
:1004900085B78F7D85BFA8CF2F923F924F925F92F5
:1004A0006F927F928F929F92AF92BF92CF92DF9284
:1004B000EF92FF920F931F93CF93DF93CDB7DEB7E9
:1004C000CA1BDB0B0FB6F894DEBF0FBECDBF09947D
:1004D0002A88398848885F846E847D848C849B84D4
:1004E000AA84B984C884DF80EE80FD800C811B81E2
:1004F000AA81B981CE0FD11D0FB6F894DEBF0FBE11
:0A050000CDBFED010895F894FFCF80
:06050A00193610258200E5
:00000001FF
